:4000000000800020110000000D0500000D05000008B5044B1A6803F53F5302331A6000F07DFA00BFFA46004010B5054C237833B9044B13B10448AFF300800123237010BDDC
:400040005081FF1F0000000038160000084B10B51BB108490848AFF300800848036803B910BD074B002BFBD0BDE81040184700BF000000005481FF1F38160000C880FF1F56
:400080000000000008B501F07FFA00F007FC074B1870732803D10122054B1A7008BD6F2802D10122024B5A7008BD00BF9589FF1F6C81FF1F08B500F05BFC054B1B782BB9E1
:4000C000044800F00DFC0122014B1A7008BD00BFCC80FF1F3C16000008B562B600F0A2FB01F034F800F07CFE00F0CAFB01F04EF800F066FF00F078FF054800F02BFC054840
:4001000001F034FA044800F0EBFB00F007F8FCE7B5000000850000004416000038B53A4B1B78012B17D013B1022B35D067E0012000F050FA002000F069FB002000F056FA94
:400140000022314B5A70314B1B78012B5AD101222D4B1A7038BD002000F03CFA012000F055FB002000F042FA00240AE0002000F043FF00F059FF244B03EB4403988001340B
:40018000A4B2B4F5806FF1D3214B1B78002B39D002221D4B1A7038BD002000F01BFA002000F034FB012000F021FA00240BE0164D05EB4405287900F087FBA888000A00F0D7
:4001C00083FB0134A4B2B4F5806FF0D30E4A53780133DBB253700F4A12789AB1092B06D80122094B1A7000220A4B1A7038BD0A2B08D10023044A1370064A137038BD0022D1
:40020000014B1A7038BD00BF7081FF1FCC80FF1F6C81FF1F6D81FF1FFEE700BFF0B40022174611E050F82760F3B226F0FF0608E001EB420511F812406D78A5550132013B99
:40024000DBB2002BF4D10137192FEBD9F0BC70470C4B1B78DBB203F007010B4A11701B09013213703022094B1A70012203F683031A70022280331A704422A3F28A231A7049
:40028000704700BFCF0100496E580040FD51004008B50A46002101F0C6F908BD08B501F0B7F908BD38B50024324B1C80502202331A704FF49C7202331A8018232E4A1370A4
:4002C00040F65F11023211800232137004222B492B48FFF7E3FF02222A4B1A7008224FF040231A70032103F500731970264B1B78DBB226490B70264B1A8041F25122023BFD
:400300001A8019250CE0234B1B7803F0010343EA440404F003044FF4F07001F03DF9013D0DB1032CEFD115B90320FFF775FF1A4B4FF480721A8007221A70002217490A709E
:400340004820023108701A700222033B1A7004220A331A70124A137843F007031370013A137843F001031370013A137843F08003137038BD80400040864000407804004822
:40038000004100400043004008010049A146004022420040254200400440004006400040A2430040012807D8044B53F820201844017A13780B431370704700BF4C16000059
:4003C000012808D8044B53F820201844017A137823EA0103137070474C16000038B572B6384A137843F00403137000240BE0364863001A19510001440A46098AD068FFF762
:4004000047FF0134E4B2082CF1D900240BE02E49A3001819420088188022816C406CFFF73DFF0134E4B2002CF1D028494FF09040FFF7F4FE0A25264B1D7004212548FFF72F
:4004400027FF04212448FFF723FF244A137843F0020313701032137843F002031370204C237843F040032370A2F58632513A137843F01003137008221A491B48FFF70EFF40
:4004800008221A491A48FFF709FF2A4619491A48FFF704FF194A137843F008031370184D61232B70FFF7FEFE81232B700122154B1A70FFF7CDFE0E2221461348FFF7EEFE1C
:4004C00038BD00BFE84600404C1600006800004883580040007600400876004003500140A04300405C040048F251004064040048125100406C0400482051004022430040F6
:400500000048004004000840B043004008B501F053F803680C2B00D1FEE7FEE708B5104E104D16E029686B68AC68002204E051F8040B43F8040B0432A242F8D1E86800229B
:4005400003E0002143F8041B04328242F9D11035013E002EE6D101F035F8FFF7BDFDFEE701000000101B000008B5114A114B1A60114A136843F40073136000230AE0032BF5
:4005800003D80E4A52F8231000E00D490D4A42F8231001332F2BF2D90B4B1A780B4B1A70084A0B4B1A60FFF719FF00F02BF808BD0004FA050CED00E014ED00E000000000AB
:4005C0000D0500000080FF1FBC760040C080FF1F08ED00E0044A137803F07F03C001C0B218431070704700BF20510040044A137803F0DF03400100F0200018431070704792
:40060000205100400B4A7F2313708021517007E0DA0002F1804202F5F042013BDBB21370002BF5D1DB0003F1804303F5F04300221A707047D080FF1F172815D831B10301B1
:400640000A495A5C42F020025A5405E0030107495A5C02F0DF025A540001044A835C43F00103835400207047012070471070004017280BD80001064A835C03F0F1034900D2
:4006800001F00E011943815400207047012070471070004041F6FF73994201D14FF4005141F6FF739A4201D14FF40052172808D8C00000F1804000F5EC408180C2800020B0
:4006C00070470120704700BF172805D8034B03EB0010417200207047012070471070004017281BD810B4C00000F1804404F5EC44D201D2B201F07F01114321709DF8042028
:400700001201D2B203F00F03134363709DF8083003F00F03A3700020E07001E00120704710BC704710B500F03FFF0A4B5B78182B0BD9084A1478013B5370E30003F18043AA
:4007400003F5F0431B78137000E0FF2400F030FF204610BDD080FF1F10F0800F0CD111F4704F0BD1C00000F1804000F5F04001808270C370002070470120704701207047A6
:4007800010F0800F08D1C00000F1804000F5F0408180C280002070470120704701BE704708B5034B1B7A00FB03F000F0F5FE08BDD880FF1F70B504460E46074B1D681F2846
:4007C00002D90020FFF7EAFF04F01F04103455F8240045F8246070BD08ED00E038B504460D46072902D90020FFF7D8FF1F2C02D90020FFF7D3FF04F01F0000F1604000F567
:4008000064406D01EDB2057038BD00BF044A137803F0BF03800100F04000184310707047205100407222074B1A70202201331A7006225F3B1A70472210331A7000224B33CA
:400840001A7070478D64004010B500F0ADFE04460A4A137843F0200313700132137843F010031370043A137843F01003137000F049F8204600F09CFE10BD00BF9D6400409D
:4008800008B5054B1B7823B9FFF7CCFF0122024B1A70FFF7D9FF08BD7489FF1F084B1B78DBB213F0200F06D0064A1078C0B213F01E0F02D17047002070470020704700BF67
:4008C0006E6400404D640040034B1B7813F0040FFAD1024B187070476A6400404A64004038B5074B1B782BB938BDFFF7EDFF0134A4B201E005460024285D0028F5D138BDDB
:400900007489FF1F054A137843F0020313701032137843F002031370704700BFA2430040014B1B685864704708ED00E04001C0B2014B1870704700BF01E400E00222014B9B
:400940001A60704700E100E00222014B1A60704780E100E010B50446FFF7F6FF2046FFF7DFFF0720FFF7E2FFFFF7E8FF10BD00BF0222014B1A60704780E200E038B59DF8A3
:400980001040651EEDB2032D51D8013809282ED8DFE800F0052D2D052D2D0F192D230F2B03D92548007840B222E02448007840B21EE00F2B03D92248007840B218E0214801
:4009C000007840B214E00F2B03D91F48007840B20EE01E48007840B20AE00F2B03D91C48007840B204E01B48007840B200E0002001EB401101FB02F2D20B91B20D2B0BD80D
:400A0000C3F10E0192B20A4191B2621E124800EB82020133937005E0631E0F4A02EB83030F229A70013C0C4B23F8241038BD0020FFF7B4FE38BD00BF180100491C01004918
:400A4000190100491D0100491A0100491E0100491B0100491F0100497889FF1FF8B5074600F0A2FD06460D4D2B7843F003032B700B4C237843F0030323700A4B1F70032088
:400A8000FFF78EFE2B7803F0FC032B70237803F0FC032370304600F08BFDF8BDF8460040F946004092580040F8B504460022C04B1A7401285AD13822BE4B1A70042202334C
:400AC0001A70062201331A70002501331D7001331D703F2201331A7002331D7001331D7001331D7001260A331E70502203F527631A700A23B04A13702C210132117001322E
:400B00001570442103321170482101321170013216700232157001321570013213704322A64B1A705220FFF799FF5822A44B1A7001331D700223A34A137001321370A24B4C
:400B40001D7001331D70284600F03EFB43F233329E4B1A603146052000F05AFB3146BA2000F0DAFB9A491D20FFF724FE022C5DD13822904B1A70042202331A700622013308
:400B80001A70002501331D7001331D703F2201331A7002331D7001331D7001331D7001260A331E70502203F527631A70272201331A702C2201331A7001331D7055220333B0
:400BC0001A705A2201331A70052701331F7002331E70112201331A70192201331A70972201331A704420FFF739FF5822744B1A7001331D7005331F70022201331A7001332B
:400C00001D7001331D70284600F0DEFA4FF47A426E4B1A603146384600F0FAFA3146252000F07AFB6B491D20FFF7C4FD032C5DD13822604B1A70042202331A70062201332F
:400C40001A70002501331D7001331D703F2201331A7002331D7001331D7001331D7001260A331E70502203F527631A70272201331A702C2201331A7001331D7055220333EF
:400C80001A705A2201331A70052701331F7002331E70112201331A70192201331A70972201331A704420FFF7D9FE5822444B1A7001331D7005331F70022201331A700133FB
:400CC0001D7001331D70284600F07EFA4FF47A423E4B1A603146384600F09AFA3146252000F01AFB3C491D20FFF764FD042C5DD13822304B1A70042202331A70062201337D
:400D00001A70002401331C7001331C703F2201331A7002331C7001331C7001331C7001250A331D70502203F527631A70272201331A702C2201331A7001331C705522033337
:400D40001A705A2201331A70052601331E7002331D70112201331A70192201331A70972201331A704420FFF779FE5822144B1A7001331C7005331E70022201331A700133CF
:400D80001C7001331C70204600F01EFA4FF47A420E4B1A602946304600F03AFA2946252000F0BAFA0D491D20FFF704FDF8BD00BF7889FF1F004E0040855800409158004055
:400DC000945800409A5800409C5800409889FF1F95100000991000009D100000A11000002DE9F04182B0394D4FF0010885F80080374E00247474102000F0F8F9102000F070
:400E000079FA07211D20FFF7E9FC0427314B1F7001331C7007331C702F4A137843F0180313702E4B1C7003F2F5231C7001331C700A22A3F209331A7001331C7002331C7008
:400E40005B2205331A705E2201331A7004331C701422A3F68C231A70CDF8008010234FF4004248F6F0510220FFF788FD0223009310234FF4004249F2DA012046FFF77EFDB4
:400E80000323009310234FF4004249F2DA012046FFF774FD009710234FF4004249F2DA012046FFF76BFD2B78013B06EB83039A780B4B1A702B78013B36F82320094B1A802F
:400EC0002878FFF7F1FD02B0BDE8F081E880FF1F7889FF1F96580040075B0040935800400E4E00400C4E004070B500F05DFB06462A4B1B782A4B1A7842F001021A701A78B7
:400F000042F010021A7010331A7842F001021A701A7842F010021A70224D2B7843F002032B70214C237843F0020323701F4A137843F0030313700320FFF732FC2B7803F0AA
:400F4000FD032B70237803F0FD032370184A137843F0060313707A22164B1A70164A137843F0010313701032137843F0010313700F3A137843F0010313701032137843F0C8
:400F8000010313704FF000530C4A1360A2F5C0721360304600F00CFB70BD00BFE880FF1FAA430040F8460040F9460040915800407758004082580040A143004080E200E052
:400FC00008B5084B9B7C4BB9064BDB7C13F0FF0F01D1FFF705FF0122024B9A74FFF784FF08BD00BF7889FF1F024A137843F0010313707047004E0040094B1B7C13F0FF0FD5
:4010000003D0074B5B7CDBB203E0064B1B7803F00103012B01D00028EED01846704700BF7889FF1F014E0040154B1B7803F00303012B07D8134B1888023B1B889BB243EAB5
:40104000004013E0022B0AD10E4B1888023B1B7843EA00430C4A107843EA002006E00B4B188883B2074A108843EA0040084B1B7C13F0FF0F02D00022054B5A74704700BFE7
:40108000144E0040124E0040114E0040104E00407889FF1F704700BF704700BF704700BF704700BF10B500F0EDF9074C01212078FFF7C2FA01216078FFF7BEFA002000F0A8
:4010C000FDF900F095F910BD9089FF1F70B505460E464FF48043020C0121084600F096F9094C2070A078012302463146FFF734FB4FF4B742A9B2A078FFF742FBA178207819
:40110000FFF7E2FA70BD00BF9089FF1F70B505460E464FF48043020C0121084600F094F9094C6070E078012302463146FFF714FB4FF4B742A9B2E078FFF722FBE17860785D
:40114000FFF7C2FA70BD00BF9089FF1F10B500F0DDF9022000F0A4F9042000F0C7F9FFF7E1FA084CA070FFF7DDFAE070064C4FF47A712046FFF7AAFF642104F57A70FFF757
:40118000C5FF10BD9089FF1F9C16000008B5054B1B7923B9FFF7DAFF0122024B1A71FFF781FF08BD9089FF1F10B5002404E02046FFF706F90134E4B2012CF8D9FF22014B9E
:4011C0001A7010BDE980FF1F10B50446FFF7ECFF2046FFF7E7F8014B1C7010BDE980FF1F014B188880B2704780400040034B1A7800F0F80010431870704700BF82400040CA
:40120000024B187800F00700704700BF8240004070B505460E46FFF7F3FF0446FFF7E0FFA84256D02B4B1B7803F0010294B900B185B938B9284B1D80284A137803F0BF0399
:40124000137070BD254A137843F040031370224B1D8070BD22B3002321490B7001240F310C7004310B700C390B7803F07F030B701A4B1B7813F0080F00D08DB9194B18804A
:401280000721013B1970164B1B7813F0010FFAD110490B7803F0FE030B700021104B19700C4B1B7813F0010F0DD00E4B1D800EB1032200E001220A4B1A70094B1B7813F09F
:4012C000010FFAD170BD044B1D8002490B7813430B7070BDA243004080400040824000400140004002400040014B188880B2704700410040034B1A7800F0F800104318700B
:40130000704700BF02410040024B187800F00700704700BF0241004070B505460E46FFF7F3FF0446FFF7E0FFA84256D02B4B1B7803F0010294B900B185B938B9284B1D80D0
:40134000284A137803F0BF03137070BD254A137843F040031370224B1D8070BD22B3002321490B70012413310C7004390B7008390B7803F07F030B701A4B1B7813F0080FA1
:4013800000D08DB9194B18800721013B1970164B1B7813F0010FFAD110490B7803F0FE030B700021104B19700C4B1B7813F0010F0DD00E4B1D800EB1032200E001220A4B00
:4013C0001A70094B1B7813F0010FFAD170BD044B1D8002490B7813430B7070BDA143004000410040024100400140004002400040054A137843F0040313701032137843F0F7
:4014000004031370704700BFA2430040F0B583B016461F460B4D00242C700194009423460A4601462046FFF75BF93A4631462878FFF730F902212878FFF71AF9287803B028
:40144000F0BD00BFEA80FF1FF0B583B016461F460B4C012525700023019300930A4601462846FFF73DF93A4631462078FFF712F902212078FFF7FCF8207803B0F0BD00BF66
:40148000EB80FF1F054A137843F0010313701032137843F001031370704700BFA8430040054B1A7802F0FD021A701A7800F0020010431870704700BF20580040014B187029
:4014C000704700BF805B0040064B1B78C3F3810303F19243063393F82031DBB2024A1370704700BF205800400846004008B5064B1A7802F0F3021A701A7800F00C00104355
:401500001870FFF7E1FF08BD2058004008B50020074B187001331870064A137843F008031370FFF7E3FF0220FFF7BAFF08BD00BF20580040875A0040014B1B6818647047B9
:4015400008ED00E04001C0B2014B1870704700BF00E400E00122014B1A60704700E100E00122014B1A60704780E100E010B50446FFF7F6FF2046FFF7DFFF0720FFF7E2FF61
:40158000FFF7E8FF10BD00BF0122014B1A60704780E200E0000000000230800803D000BF01380046FCD17047EFF3108072B6704780F31088704700BF014B1868704700BF7D
:4015C0004C81FF1F0E4B70B51E460E4C0025E41AA410A54204D056F8253098470135F8E700F084FA084B094C1E46E41AA4100025A54204D056F8253098470135F8E770BDCB
:40160000F81A0000F81A0000F81A0000001B000010B5431E0A44914204D011F8014B03F8014FF8E710BD03460244934202D003F8011BFAE770470000000000005072657373
:40164000736564004C61623300000000035B00402443004040000000005100401000305100404000C0510040100000000140800C000D014000030014014000080040014068
:40168000000A004C014000020050014020000000800C0140DC030048800000008080818182828384848585868787888889898A8B8B8C8C8D8E8E8F8F90909192929393940D
:4016C0009595969697979899999A9A9B9B9C9C9D9E9E9F9FA0A0A1A1A2A3A3A4A4A5A5A6A6A7A7A8A8A9AAAAABABACACADADAEAEAFAFB0B0B1B1B2B2B3B3B4B4B5B5B6B674
:40170000B7B7B8B8B8B9B9BABABBBBBCBCBDBDBDBEBEBFBFC0C0C1C1C1C2C2C3C3C3C4C4C5C5C5C6C6C7C7C7C8C8C8C9C9CACACACBCBCBCCCCCCCDCDCDCECECECFCFCFD0AB
:40174000D0D0D0D1D1D1D2D2D2D2D3D3D3D4D4D4D4D5D5D5D5D6D6D6D6D6D7D7D7D7D8D8D8D8D8D8D9D9D9D9D9DADADADADADADADBDBDBDBDBDBDBDBDCDCDCDCDCDCDCDC9C
:40178000DCDCDDDDDDDDDDDDDDDDDDDDDDDDDDDDDDDDDDDDDDDDDDDDDDDDDDDDDDDDDDDDDDDDDDDDDDDDDDDDDDDDDDDCDCDCDCDCDCDCDCDCDCDBDBDBDBDBDBDBDBDADADA0E
:4017C000DADADADAD9D9D9D9D9D8D8D8D8D8D8D7D7D7D7D6D6D6D6D6D5D5D5D5D4D4D4D4D3D3D3D2D2D2D2D1D1D1D0D0D0D0CFCFCFCECECECDCDCDCCCCCCCBCBCBCACACA31
:40180000C9C9C8C8C8C7C7C7C6C6C5C5C5C4C4C3C3C3C2C2C1C1C1C0C0BFBFBEBEBDBDBDBCBCBBBBBABAB9B9B8B8B8B7B7B6B6B5B5B4B4B3B3B2B2B1B1B0B0AFAFAEAEADAA
:40184000ADACACABABAAAAA9A8A8A7A7A6A6A5A5A4A4A3A3A2A1A1A0A09F9F9E9E9D9C9C9B9B9A9A99999897979696959594939392929190908F8F8E8E8D8C8C8B8B8A898C
:4018800089888887878685858484838282818180807F7E7E7D7D7C7B7B7A7A79787877777676757474737372717170706F6F6E6D6D6C6C6B6A6A696968686766666565648B
:4018C00064636362616160605F5F5E5E5D5C5C5B5B5A5A595958585757565555545453535252515150504F4F4E4E4D4D4C4C4B4B4A4A49494848474747464645454444432F
:4019000043424242414140403F3F3E3E3E3D3D3C3C3C3B3B3A3A3A393938383837373736363535353434343333333232323131313030302F2F2F2F2E2E2E2D2D2D2D2C2C08
:401940002C2B2B2B2B2A2A2A2A29292929292828282827272727272726262626262525252525252524242424242424242323232323232323232322222222222222222222FD
:401980002222222222222222222222222222222222222222222222222222222222222223232323232323232323242424242424242425252525252525262626262627272755
:4019C0002727272828282829292929292A2A2A2A2B2B2B2B2C2C2C2D2D2D2D2E2E2E2F2F2F2F303030313131323232333333343434353535363637373738383839393A3A07
:401A00003A3B3B3C3C3C3D3D3E3E3E3F3F404041414242424343444445454646474747484849494A4A4B4B4C4C4D4D4E4E4F4F505051515252535354545555565757585885
:401A400059595A5A5B5B5C5C5D5E5E5F5F6060616162636364646565666667686869696A6A6B6C6C6D6D6E6F6F70707171727373747475767677777878797A7A7B7B7C7DD0
:401A80007D7E7E7F80848A8F94989EA2A8ACB2B6BCC0C6CAD0D5DADEE4E8EEF2F8FCF8F2EEE8E4DEDAD4D0CAC6C0BCB6B2ADA8A29E98948F8A84807A76706B66615D5853F4
:401AC0004E49443E39342F2A25211C17120D0803080D12171C21252A2F34393E44494E53585D61666B70767A43000000F8B500BFF8BC08BC9E4670474D00000069050000CE
:401B0000F8B500BFF8BC08BC9E46704729000000201B0000C880FF1F880000005008000000000000010000007F800000030000000000E02EC05D00001800000000366E0191
:401B400001FFFFFF0000000000000000000000000000000000000000000000000000000000000000E81A000000000000000000000000000000000000000000000000000065
:401B8000000000000000000000000000000000000000000000000000000000000000000000000000EC80FF1F0000000000000000000000000000000000000000000000009B
:401BC00000000000000000000000000000000000000000000000000000000000000000000000000000000000000000000000000000000000000000000000000000000000E5
:401C000000000000000000000000000000000000000000000000000000000000000000000000000000000000000000000000000000000000000000000000000000000000A4
:401C40000000000000000000000000000000000000000000000000000000000000000000000000000000000000000000000000000000000000000000000000000000000064
:401C80000000000000000000000000000000000000000000000000000000000000000000000000000000000000000000000000000000000000000000000000000000000024
:020000040003F7
:0200000480007A
:4000000002520040015A004003640040020101400105014004090140500A01404D0B0140080C0140470D0140570E0140370F01400117014001190140084001400241014005
:4000400003420140014301400644014008450140064601400147014006480140024C014003500140025101401102140187018A0F8D728E38E040E601EE02A880AB10B60161
:40008000B70801030215030C04E00504081309030A0C0C0A0D0F0E141013110F12041420150C16C01880190C1A201B031D101E0820032108221424E025022B032C402D0178
:4000C0002E20301032E03310340F350F3A203B223E013F044061410545E046BC480E49FF4AFF4BFF4EF04F44500C5401580459045A045B045C115D115F0166C06A406B02AE
:40010000830188018E01910299039C02A001A103B103B603B880B902BF01D804D904DC01DF01000A0120030105200701081009800A140B800F021080110413401440182040
:4001400019201A501DC0211022062308274028122A022B082C402F403108328233203520370138203A413B043C023E013F02420149214A804B805080521059015A485B1028
:400180009104920493C49520961098029A429B019D609E109F48A004A108A329A602AB80B002B284B340C0CFC28FC41DCA8FCCAFCE8FD008D20CD60FEC04EE021001360142
:4001C00039023E403F01580459045F010202032808020A150E80100211141240180119021A041B081F80200421402205260129802A0A2B08308032093320380839A03A8076
:400200003B01400141104280430849804A024B0150805A406806691470047108720A730682018A018B08924093809404952097049A409B019C029D629E109F4AA248A32185
:40024000A508A682A708C007C21FC40FCA0FCC0FCE0FD00FD208D608E401043C0502060209010A030B060C3F0D071004124014181506180819061B011E04201021042427D2
:400280002618283C2A012B012D062F0130203307341F36403A203B083E0154185604580459045B045C115D105F0183038414870888108AAC8C098ED0910C920393039901CB
:4002C0009B069E209F0CA0DCA101A222A30EA810AA40AC0CAE71B01FB6E0B70FBA80BB80C001C704C9FFCA07CBFFCC40CD20CEF0CF05D008D804D904DA04DC11DD01DF01B4
:40030000E040E1A8E240E32001400202032805600610080209080A010B040E800F0210401208130A160517011A411B201E801F402208270128402A402B082F403108332091
:400340003560370139603B043D083F0247405504560457015902608462806601678080808A48C0E7C29FC4DECA8DCCB6CECED010D601D80DE040EC10EC10324036403C4048
:4003800082408C40CC30CE20E6809440A6409440AE40EE40944033807D028F80CC08DE01E00200080B4053018101A501C008C208D4014502AB01AF40B004D001EA04A502D9
:4003C0002440270494409F04B704C8A0B502EC0800020C020E02000F1002000000000001000C60000022600C6000001021000A01600C0422420E092060000010000860006E
:400400001304000013000002102E00006020101003010C0E00020000000040142305040001E00C0006FFFFFF62A0F0410C000000000002100404040411110001000000009E
:40044000000040020010301000101012000000000000000000000000000000000000000000003000000B0B0000000000020011E2E200020000000000BB00180100000000C5
:40048000000000000000000000000000000000000000000000000000000000000000000000000000000000000000000000000000000000000000000000000000000000003C
:4004C00000000000000000000000000000000000000000000000000000000000000000000000000000000000000000000000000000000000000000000000000000000000FC
:4005000000000000000000000000000000000000000000000000000000000000000000000000000000000000000000000000000000000000000000000000000000000000BB
:40054000000000000000000000000000000000000000000000000000000000000000000000000000000000000000000000000000000000000000000000000000000000007B
:0200000490006A
:0400000000004005B7
:0200000490105A
:04000000BC90ACAF55
:0200000490303A
:02000000FA7F85
:0200000490402A
:4000000000000000000000000000000000000000000000000000000000000000000000000000000000000000000000000000000000000000000000000000000000000000C0
:400040000000000000000000000000000000000000000000000000000000000000000000000000000000000000000000000000000000000000000000000000000000000080
:400080000000000000000000000000000000000000000000000000000000000000000000000000000000000000000000000000000000000000000000000000000000000040
:4000C0000000000000000000000000000000000000000000000000000000000000000000000000000000000000000000000000000000000000000000000000000000000000
:0200000490501A
:0C00000000012E16006900012E20FAE815
:00000001FF